:100000000C942A000C94C8090C94FB090C942E0A39
:100010000C9447000C9447000C9447000C94940AED
:100020000C9447000C94610A0C9447000C94470010
:100030000C9447000C9447000C9447000C94470024
:100040000C9447000C9447000C9447000C94470014
:100050000C94470011241FBECFE5D8E0DEBFCDBF12
:1000600010E0A0E6B0E0ECEEF3E302C005900D92E4
:10007000A83AB107D9F710E0A8EAB0E001C01D9294
:10008000A03BB107E1F70E943C190C94F4190C94C1
:100090000000EF92FF920F931F937B018C0120E0F1
:1000A00030E040E05FE40E94490388238CF0C801FF
:1000B000B70120E030E040E05FE40E94C1010E940F
:1000C000A9039B01AC01205030404040504806C07D
:1000D000C801B7010E94A9039B01AC01B901CA0183
:1000E0001F910F91FF90EF900895A0E0B0E0EBE733
:1000F000F0E00C948C19DC012B01FA019C919230F8
:1001000008F439C1EB018881823008F433C194309E
:1001100069F4843009F02FC111969C91119789815F
:10012000981709F428C1ADE8B0E025C1843009F47E
:1001300021C18230A9F4923009F01DC19A01AD01AC
:1001400088E0EA010990AE01E90109929E0181501F
:10015000C1F7E201898111969C918923818308C1AD
:10016000923009F407C112962D903C901397EB0141
:100170008A819B811496AD90BD90CD90DC901797AD
:10018000EC80FD800E811F819101281B390BB90184
:1001900037FF04C066277727621B730B6032710537
:1001A0000CF061C0121613066CF537014801062EDB
:1001B00004C096948794779467940A94D2F721E0C8
:1001C00030E040E050E004C0220F331F441F551FB1
:1001D0006A95D2F721503040404050402E213F21B7
:1001E00040235123211531054105510521F021E01E
:1001F00030E040E050E079018A01E628F72808293C
:1002000019293CC0232BD1F1260E371E350146019A
:10021000062E04C096948794779467940A94D2F734
:1002200021E030E040E050E004C0220F331F441FC3
:10023000551F6A95D2F721503040404050402A2146
:100240003B214C215D21211531054105510521F04E
:1002500021E030E040E050E059016A01A628B728CB
:10026000C828D9280BC0821593052CF01C01AA249C
:10027000BB24650103C0EE24FF24870111969C91E5
:10028000D20111968C91981709F445C0992339F041
:10029000A80197012A193B094C095D0906C0A6016E
:1002A00095012E193F09400B510B57FD08C01182D3
:1002B0003382228224833583468357831DC081E0A5
:1002C00081833382228288279927DC01821B930B4A
:1002D000A40BB50B84839583A683B7830DC0220F2F
:1002E000331F441F551F24833583468357838281E0
:1002F000938101979383828324813581468157813D
:10030000DA01C9010197A109B1098F5F9F4FAF4F72
:10031000BF4328F30BC0918333822282EA0CFB1C7B
:100320000C1D1D1DE482F5820683178383E0808304
:10033000248135814681578157FF1AC0C901AA27F8
:1003400097FDA095BA2F81709070A070B0705695EF
:10035000479537952795822B932BA42BB52B848318
:100360009583A683B7838281938101969383828349
:10037000DF0101C0D201CD01CDB7DEB7E2E10C94BF
:10038000A819A0E2B0E0E7ECF1E00C9498196983B9
:100390007A838B839C832D833E834F835887E9E048
:1003A000EE2EF12CEC0EFD1ECE010196B7010E943F
:1003B000D2048E010F5E1F4FCE010596B8010E9438
:1003C000D2048A8991E089278A8BC701B801AE01DE
:1003D000475E5F4F0E9475000E94FD03A096E6E015
:1003E0000C94B419A0E2B0E0E8EFF1E00C94981995
:1003F00069837A838B839C832D833E834F835887C5
:10040000F9E0EF2EF12CEC0EFD1ECE010196B701A6
:100410000E94D2048E010F5E1F4FCE010596B801D7
:100420000E94D204C701B801AE01475E5F4F0E942F
:1004300075000E94FD03A096E6E00C94B419A0E2BA
:10044000B0E0E5E2F2E00C948C1969837A838B8347
:100450009C832D833E834F835887CE010196BE0136
:10046000675F7F4F0E94D204CE010596BE016F5E8A
:100470007F4F0E94D2049985923088F0898982301A
:10048000C8F0943019F4823051F404C0843029F457
:10049000923081F48DE890E0C6C0923049F420E0BB
:1004A0009A858A89981321E02A87CE010996BBC0D4
:1004B000823049F420E09A858A89981321E02A8BBA
:1004C000CE014196B0C02D843E844F8458886D88FB
:1004D0007E888F88988CEE24FF248701AA24BB2471
:1004E000650140E050E060E070E0E0E0F0E0C10174
:1004F00081709070892BE9F0E60CF71C081D191D1E
:100500009A01AB012A0D3B1D4C1D5D1D80E090E062
:10051000A0E0B0E0E614F7040805190520F481E036
:1005200090E0A0E0B0E0BA01A901480F591F6A1F8E
:100530007B1FAA0CBB1CCC1CDD1C97FE08C081E0F5
:1005400090E0A0E0B0E0A82AB92ACA2ADB2A3196B6
:10055000E032F10549F0660C771C881C991C569412
:10056000479437942794C3CFFA85EA892B893C892D
:100570008B859C85280F391F2E5F3F4F17C0CA01FE
:1005800081709070892B61F016950795F794E79428
:1005900080E090E0A0E0B0E8E82AF92A0A2B1B2BC3
:1005A00076956795579547952F5F3F4F77FDE7CF36
:1005B0000CC0440F551F661F771F17FD4160EE0CDE
:1005C000FF1C001F111F21503040403090E05907A0
:1005D00090E0690790E4790760F32B8F3C8FDB0193
:1005E000CA018F779070A070B07080349105A1051A
:1005F000B10561F447FD0AC0E114F10401051105DC
:1006000029F0405C5F4F6F4F7F4F40781A8EFE1786
:1006100011F081E08A8F4D8F5E8F6F8F78A383E01A
:10062000898FCE0149960E94FD03A096E2E10C94C9
:10063000A819A8E1B0E0EFE1F3E00C949819698300
:100640007A838B839C832D833E834F83588789E0F5
:10065000E82EF12CEC0EFD1ECE010196B7010E9492
:10066000D2048E010F5E1F4FCE010596B8010E9485
:10067000D2048985823040F08989823028F0C70110
:10068000B8010E944A0501C08FEF6896E6E00C941D
:10069000B419A8E1B0E0EFE4F3E00C949819698391
:1006A0007A838B839C832D833E834F83588789E095
:1006B000E82EF12CEC0EFD1ECE010196B7010E9432
:1006C000D2048E010F5E1F4FCE010596B8010E9425
:1006D000D2048985823040F08989823028F0C701B0
:1006E000B8010E944A0501C08FEF6896E6E00C94BD
:1006F000B419A8E1B0E0EFE7F3E00C94981969832E
:100700007A838B839C832D833E834F83588789E034
:10071000E82EF12CEC0EFD1ECE010196B7010E94D1
:10072000D2048E010F5E1F4FCE010596B8010E94C4
:10073000D2048985823040F08989823028F0C7014F
:10074000B8010E944A0501C081E06896E6E00C9479
:10075000B419ACE0B0E0EFEAF3E00C949C196983C3
:100760007A838B839C83CE010196BE016B5F7F4FA2
:100770000E94D2048D81823061F1823050F1843048
:1007800021F48E81882351F12EC02F81388537FDC9
:1007900020C06E812F3131051CF06623F9F023C093
:1007A0008EE190E0821B930B29853A854B855C8511
:1007B00004C056954795379527958A95D2F76623B5
:1007C000B1F050954095309521953F4F4F4F5F4F79
:1007D0000EC020E030E040E050E009C02FEF3FEFD6
:1007E0004FEF5FE704C020E030E040E050E8B9019F
:1007F000CA012C96E2E00C94B819DF92EF92FF92B6
:100800000F931F93FC01E480F58006811781D1804E
:100810008081823048F480E090E0A0E1B0E0E82AF6
:10082000F92A0A2B1B2BA5C0843009F49FC0823003
:1008300021F4EE24FF24870105C0E114F104010531
:10084000110519F4E0E0F0E096C0628173819FEF3A
:10085000623879070CF05BC022E83FEF261B370BAC
:100860002A3131052CF020E030E040E050E02AC091
:10087000B801A701022E04C0769567955795479554
:100880000A94D2F781E090E0A0E0B0E004C0880FC5
:10089000991FAA1FBB1F2A95D2F70197A109B10979
:1008A0008E219F21A023B1230097A105B10521F03E
:1008B00081E090E0A0E0B0E09A01AB01282B392B59
:1008C0004A2B5B2BDA01C9018F779070A070B07052
:1008D00080349105A105B10539F427FF09C0205CDA
:1008E0003F4F4F4F5F4F04C0215C3F4F4F4F5F4F13
:1008F000E0E0F0E02030A0E03A07A0E04A07A0E402
:100900005A0710F0E1E0F0E079018A0127C0603871
:10091000710564F5FB01E158FF4FD801C7018F77DE
:100920009070A070B07080349105A105B10539F4C4
:10093000E7FE0DC080E490E0A0E0B0E004C08FE3EB
:1009400090E0A0E0B0E0E80EF91E0A1F1B1F17FFA1
:1009500005C016950795F794E794319687E01695AC
:100960000795F794E7948A95D1F705C0EE24FF2404
:100970008701EFEFF0E06E2F679566276795902F60
:100980009F77D794DD24D7948E2F8695492F462BB9
:10099000582F5D29B701CA011F910F91FF90EF9069
:1009A000DF900895FC01DB01408151812281622F9B
:1009B0006F7770E0221F2227221F9381892F880FD3
:1009C000822B282F30E0991F9927991F11969C930D
:1009D000119721153105A9F54115510561057105DD
:1009E00011F482E037C082E89FEF13969C938E93B8
:1009F00012979A01AB0167E0220F331F441F551F66
:100A00006A95D1F783E08C930DC0220F331F441FEA
:100A1000551F12968D919C911397019713969C9355
:100A20008E931297203080E0380780E0480780E4FA
:100A3000580758F314962D933D934D935C93179755
:100A400008952F3F310579F4411551056105710570
:100A500019F484E08C93089564FF03C081E08C93C3
:100A600012C01C9210C02F57304013963C932E9307
:100A7000129783E08C9387E0440F551F661F771F02
:100A80008A95D1F7706414964D935D936D937C9322
:100A9000179708951F93DC01FB019C91923008F495
:100AA00047C08081823008F443C0943051F41196DD
:100AB0001C91843099F58181682F70E0611B710968
:100AC0003FC0843021F0923031F48230B9F181811D
:100AD000882389F12DC011961C9111978230F1F075
:100AE00081811817D9F412962D913C911397828128
:100AF00093818217930794F028173907BCF0149656
:100B00008D919D910D90BC91A02D248135814681C0
:100B10005781281739074A075B0718F4112341F05A
:100B20000AC082179307A407B50740F4112319F0F0
:100B300061E070E005C06FEF7FEF02C060E070E041
:100B4000CB011F910895DF93CF9300D000D00F9277
:100B5000CDB7DEB789836A834B838A81883008F0FA
:100B6000D5C08981843008F0D1C08981282F30E038
:100B70003D832C838C819D818130910509F443C094
:100B80002C813D81223031052CF48C819D81009790
:100B900071F0BCC02C813D812230310509F45FC069
:100BA0008C819D818330910509F485C0AFC08B8114
:100BB0008130A1F4AAE3B0E0EAE3F0E08081482FBD
:100BC0008A81282F30E081E090E0022E02C0880F59
:100BD000991F0A94E2F7842B8C9398C0AAE3B0E0A3
:100BE000EAE3F0E08081482F8A81282F30E081E01D
:100BF00090E0022E02C0880F991F0A94E2F78095B8
:100C000084238C9383C08B818130A1F4A7E3B0E06F
:100C1000E7E3F0E08081482F8A81282F30E081E0EF
:100C200090E0022E02C0880F991F0A94E2F7842BED
:100C30008C936CC0A7E3B0E0E7E3F0E08081482F3D
:100C40008A81282F30E081E090E0022E02C0880FD8
:100C5000991F0A94E2F7809584238C9357C08B8167
:100C60008130A1F4A4E3B0E0E4E3F0E08081482F18
:100C70008A81282F30E081E090E0022E02C0880FA8
:100C8000991F0A94E2F7842B8C9340C0A4E3B0E050
:100C9000E4E3F0E08081482F8A81282F30E081E072
:100CA00090E0022E02C0880F991F0A94E2F7809507
:100CB00084238C932BC08B818130A1F4A1E3B0E01D
:100CC000E1E3F0E08081482F8A81282F30E081E045
:100CD00090E0022E02C0880F991F0A94E2F7842B3D
:100CE0008C9314C0A1E3B0E0E1E3F0E08081482FF1
:100CF0008A81282F30E081E090E0022E02C0880F28
:100D0000991F0A94E2F7809584238C930F900F909B
:100D10000F900F900F90CF91DF910895DF93CF93B5
:100D200000D000D00F92CDB7DEB789836A834B83A2
:100D30008A81883008F0D5C08981843008F0D1C01C
:100D40008981282F30E03D832C838C819D818130E7
:100D5000910509F443C02C813D81223031052CF4EA
:100D60008C819D81009771F0BCC02C813D81223027
:100D7000310509F45FC08C819D818330910509F4B0
:100D800085C0AFC08B818130A1F4ABE3B0E0EBE371
:100D9000F0E08081482F8A81282F30E081E090E0C8
:100DA000022E02C0880F991F0A94E2F7842B8C93BD
:100DB00098C0ABE3B0E0EBE3F0E08081482F8A819C
:100DC000282F30E081E090E0022E02C0880F991FAA
:100DD0000A94E2F7809584238C9383C08B818130C1
:100DE000A1F4A8E3B0E0E8E3F0E08081482F8A8135
:100DF000282F30E081E090E0022E02C0880F991F7A
:100E00000A94E2F7842B8C936CC0A8E3B0E0E8E38B
:100E1000F0E08081482F8A81282F30E081E090E047
:100E2000022E02C0880F991F0A94E2F7809584234E
:100E30008C9357C08B818130A1F4A5E3B0E0E5E34A
:100E4000F0E08081482F8A81282F30E081E090E017
:100E5000022E02C0880F991F0A94E2F7842B8C930C
:100E600040C0A5E3B0E0E5E3F0E08081482F8A814F
:100E7000282F30E081E090E0022E02C0880F991FF9
:100E80000A94E2F7809584238C932BC08B81813068
:100E9000A1F4A2E3B0E0E2E3F0E08081482F8A8190
:100EA000282F30E081E090E0022E02C0880F991FC9
:100EB0000A94E2F7842B8C9314C0A2E3B0E0E2E33F
:100EC000F0E08081482F8A81282F30E081E090E097
:100ED000022E02C0880F991F0A94E2F7809584239E
:100EE0008C930F900F900F900F900F90CF91DF91F8
:100EF0000895DF93CF9300D000D00F92CDB7DEB727
:100F00008A836B8319828B81883008F084C08A8140
:100F1000843008F080C08A81282F30E03D832C8304
:100F20004C815D814130510579F18C819D81823008
:100F3000910534F42C813D812115310569F06BC098
:100F40004C815D8142305105B9F18C819D818330A6
:100F5000910509F449C05FC0E9E3F0E08081282FE2
:100F600030E08B81882F90E0A90102C0559547950C
:100F70008A95E2F7CA0181709070882319F081E0A8
:100F8000898349C0198247C0E6E3F0E08081282FB9
:100F900030E08B81882F90E0A90102C055954795DC
:100FA0008A95E2F7CA0181709070882319F081E078
:100FB000898331C019822FC0E3E3F0E08081282FBC
:100FC00030E08B81882F90E0A90102C055954795AC
:100FD0008A95E2F7CA0181709070882319F081E048
:100FE000898319C0198217C0E0E3F0E08081282FBF
:100FF00030E08B81882F90E0A90102C0559547957C
:101000008A95E2F7CA0181709070882319F081E017
:10101000898301C0198289810F900F900F900F90E2
:101020000F90CF91DF910895DF93CF9300D000D040
:10103000CDB7DEB789836A838981843090F5898151
:10104000282F30E03C832B838B819C81813091055C
:10105000D1F02B813C81223031052CF48B819C8195
:10106000009761F01EC02B813C812230310581F058
:101070008B819C818330910581F013C0EAE3F0E01D
:101080008A8180830EC0E7E3F0E08A81808309C013
:10109000E4E3F0E08A81808304C0E1E3F0E08A8148
:1010A00080830F900F900F900F90CF91DF91089554
:1010B000DF93CF9300D000D0CDB7DEB789836A83AA
:1010C0008981843090F58981282F30E03C832B83FF
:1010D0008B819C8181309105D1F02B813C81223024
:1010E00031052CF48B819C81009761F01EC02B810F
:1010F0003C812230310581F08B819C8183309105C8
:1011000081F013C0EBE3F0E08A8180830EC0E8E356
:10111000F0E08A81808309C0E5E3F0E08A81808382
:1011200004C0E2E3F0E08A8180830F900F900F907B
:101130000F90CF91DF910895DF93CF9300D000D02F
:10114000CDB7DEB78A8319828A81843090F58A818F
:10115000282F30E03C832B838B819C81813091054B
:10116000D1F02B813C81223031052CF48B819C8184
:10117000009761F01EC02B813C812230310581F047
:101180008B819C818330910581F013C0E9E3F0E00D
:10119000808189830EC0E6E3F0E08081898309C005
:1011A000E3E3F0E08081898304C0E0E3F0E0808144
:1011B000898389810F900F900F900F90CF91DF91CD
:1011C0000895DF93CF9300D0CDB7DEB79A8389839C
:1011D000AFE5B0E0EFE5F0E0808180688C93ABE5AF
:1011E000B0E0EBE5F0E09081E981FA818081892B24
:1011F0008C93E981FA818081803459F4A5E5B0E0CF
:10120000E5E5F0E09081E981FA818181892B8C9379
:1012100034C0E981FA818081803891F4A5E5B0E09D
:10122000E5E5F0E08081282FE981FA818181882F2E
:1012300090E0880F991F880F991F822B8C931DC0F7
:10124000E981FA8180818032C1F4A4E5B0E0E4E56F
:10125000F0E08081282FE981FA818181882F90E058
:101260008170907000249695879507949695879540
:101270000794982F802D822B8C930F900F90CF91F5
:10128000DF910895DF93CF9300D0CDB7DEB79A8377
:101290008983ABE5B0E0EBE5F0E08081982FE98150
:1012A000FA818081809589238C930F900F90CF9144
:1012B000DF910895DF93CF9300D0CDB7DEB79A8347
:1012C0008983E981FA818081803459F4A5E5B0E011
:1012D000E5E5F0E09081E981FA818181892B8C93A9
:1012E00034C0E981FA818081803891F4A5E5B0E0CD
:1012F000E5E5F0E08081282FE981FA818181882F5E
:1013000090E0880F991F880F991F822B8C931DC026
:10131000E981FA8180818032C1F4A4E5B0E0E4E59E
:10132000F0E08081282FE981FA818181882F90E087
:10133000817090700024969587950794969587956F
:101340000794982F802D822B8C930F900F90CF9124
:10135000DF910895DF93CF9300D00F92CDB7DEB722
:101360009A8389836B838B81833060F48B81882F90
:1013700090E029813A81880F991FFC01E855FF4FC1
:10138000318320830F900F900F90CF91DF910895BC
:101390001F920F920FB60F9211242F933F934F93EA
:1013A0005F936F937F938F939F93AF93BF93EF93CD
:1013B000FF93DF93CF93CDB7DEB78091A8009091D4
:1013C000A900009729F0E091A800F091A9000995E3
:1013D000CF91DF91FF91EF91BF91AF919F918F914D
:1013E0007F916F915F914F913F912F910F900FBE21
:1013F0000F901F9018951F920F920FB60F92112405
:101400002F933F934F935F936F937F938F939F930C
:10141000AF93BF93EF93FF93DF93CF93CDB7DEB737
:101420008091AA009091AB00009729F0E091AA006A
:10143000F091AB000995CF91DF91FF91EF91BF91B2
:10144000AF919F918F917F916F915F914F913F915C
:101450002F910F900FBE0F901F9018951F920F9213
:101460000FB60F9211242F933F934F935F936F9377
:101470007F938F939F93AF93BF93EF93FF93DF93EC
:10148000CF93CDB7DEB78091AC009091AD000097BF
:1014900029F0E091AC00F091AD000995CF91DF917A
:1014A000FF91EF91BF91AF919F918F917F916F913C
:1014B0005F914F913F912F910F900FBE0F901F9012
:1014C00018951F920F920FB60F9211242F933F93EE
:1014D0004F935F936F937F938F939F93AF93BF933C
:1014E000EF93FF93DF93CF93CDB7DEB78091AE003C
:1014F0009091AF00009729F0E091AE00F091AF001D
:101500000995CF91DF91FF91EF91BF91AF919F919D
:101510008F917F916F915F914F913F912F910F909C
:101520000FBE0F901F9018951F920F920FB60F923B
:1015300011242F933F934F935F936F937F938F93D8
:101540009F93AF93BF93EF93FF93DF93CF93CDB769
:10155000DEB78091AE009091AF00009729F0E09146
:10156000AE00F091AF000995CF91DF91FF91EF911F
:10157000BF91AF919F918F917F916F915F914F91AB
:101580003F912F910F900FBE0F901F901895DF93F2
:10159000CF9300D0CDB7DEB79A838983EFE4F0E034
:1015A0008CE08083AEE4B0E0E981FA818481282F69
:1015B000E981FA818581882F90E0880F991F880F33
:1015C000991F880F991F822B8C93E981FA8185815D
:1015D000813071F4AAE4B0E0E981FA8182819381DB
:1015E00011969C938E93E9E5F0E080E1808312C030
:1015F000E981FA818581882369F4ACE4B0E0E9816E
:10160000FA818081918111969C938E93E9E5F0E0B7
:1016100084E080830F900F90CF91DF910895DF9346
:10162000CF93CDB7DEB76FE470E04EE450E029E52C
:1016300030E0ACE4B0E0EAE4F0E0118210828081B6
:10164000918111969C938E938D919C911197F901A4
:101650008083F9018081FA018083FA018081FB0196
:101660008083CF91DF910895DF93CF93CDB7DEB71D
:10167000ECE4F0E080819181CF91DF910895DF93D8
:10168000CF9300D0CDB7DEB79A83898389819A81C1
:101690009093AF008093AE000F900F90CF91DF91A9
:1016A0000895DF93CF9300D000D0CDB7DEB79C83F1
:1016B0008B83ABE2B0E0EBE2F0E0808182608C9360
:1016C000AAE2B0E0EAE2F0E0808188618C93A0E4D5
:1016D000B0E0EB81FC819181EB81FC818081982BD2
:1016E000EB81FC818281892B86688C93EB81FC8164
:1016F00083819481A581B681880F991FAA1FBB1F82
:10170000880F991FAA1FBB1F880F991FAA1FBB1FF5
:101710009C01AD0180E094E2A4EFB0E0BC01CD01FA
:101720000E945619DA01C90101979A838983E0E47E
:10173000F0E089819A81892F99278083E9E2F0E09E
:10174000898180830F900F900F900F90CF91DF9140
:101750000895DF93CF9300D0CDB7DEB79A83898306
:10176000EBE2F0E08081882F90E08072907000972B
:10177000B9F3ECE2F0E0A981BA818C9180830F90FB
:101780000F90CF91DF910895DF93CF9300D0CDB725
:10179000DEB79A838983EBE2F0E080818823DCF76F
:1017A000ECE2F0E08081E981FA8180830F900F9074
:1017B000CF91DF910895DF93CF9300D00F92CDB7F3
:1017C000DEB79B838A8319828A819B810E94C40B26
:1017D0000CC089818F5F89838981282F30E08A81BD
:1017E0009B81820F931F0E94C40B8981282F30E0B8
:1017F0008A819B81FC01E20FF31F8081833249F7CC
:101800008981282F30E08A819B81FC01E20FF31F40
:1018100010820F900F900F90CF91DF910895DF937A
:10182000CF9300D00F92CDB7DEB79B838A83198206
:1018300019820CC08981282F30E08A819B81820F18
:10184000931F0E94A90B89818F5F89838981282F2B
:1018500030E08A819B81FC01E20FF31F80818823A5
:1018600049F7CE0101960E94A90B0F900F900F909F
:10187000CF91DF910895DF93CF93CDB7DEB782E0AC
:1018800065E041E00E94A30582E065E040E00E943F
:101890008E06CF91DF910895DF93CF93CDB7DEB75A
:1018A00082E065E041E00E948E06CF91DF910895CD
:1018B000DF93CF93CDB7DEB782E065E040E00E94D2
:1018C0008E06CF91DF910895DF93CF93CDB7DEB72A
:1018D00082E061E041E00E94A30582E061E040E037
:1018E0000E948E06CF91DF910895DF93CF93CDB7FD
:1018F000DEB782E061E041E00E948E06CF91DF9189
:101900000895DF93CF93CDB7DEB782E061E040E08A
:101910000E948E06CF91DF910895DF93CF93CDB7CC
:10192000DEB72E970FB6F894DEBF0FBECDBF80E0B6
:1019300061E041E00E94A30580E062E041E00E9496
:10194000A30580E090E0A0EAB1E48B879C87AD8797
:10195000BE876B857C858D859E8520E030E04AE7DB
:1019600055E40E941F02DC01CB018F839887A98771
:10197000BA876F81788589859A8520E030E040E8D4
:101980005FE30E94790388232CF481E090E09E833A
:101990008D833FC06F81788589859A8520E03FEFF0
:1019A0004FE757E40E94190318164CF56B857C85A8
:1019B0008D859E8520E030E040E251E40E941F02C8
:1019C000DC01CB01BC01CD010E944900DC01CB014F
:1019D0009E838D830FC080E991E09C838B838B81F4
:1019E0009C810197F1F79C838B838D819E81019768
:1019F0009E838D838D819E81009769F714C06F81CE
:101A0000788589859A850E944900DC01CB019E83F7
:101A10008D838D819E819A83898389819A810197A3
:101A2000F1F79A83898380E063E041E00E94A30597
:101A300080E064E041E00E94A30580E065E041E0D1
:101A40000E94A30580E066E041E00E94A30583E3D5
:101A50000E943F0D82E30E943F0D88E20E943F0DED
:101A60008CE00E943F0D81E00E943F0D2E960FB644
:101A7000F894DEBF0FBECDBFCF91DF9108950F93D5
:101A80001F93DF93CF93CDB7DEB7C356D0400FB6C9
:101A9000F894DEBF0FBECDBFFE01ED59FF4F80832E
:101AA00080E061E040E00E948E06FE01E15AFF4FB7
:101AB00080E090E0A0E8BFE380839183A283B383BA
:101AC0008E01055A1F4FFE01E15AFF4F608171815F
:101AD0008281938120E030E04AE755E40E941F02B2
:101AE000DC01CB01F80180839183A283B383FE01E3
:101AF000E55AFF4F608171818281938120E030E05F
:101B000040E85FE30E947903882344F4FE01E75A2A
:101B1000FF4F81E090E09183808364C0FE01E55A2D
:101B2000FF4F608171818281938120E03FEF4FE719
:101B300057E40E94190318160CF043C0FE01E15A45
:101B4000FF4F608171818281938120E030E040E22B
:101B500051E40E941F02DC01CB018E01075A1F4F86
:101B6000BC01CD010E944900DC01CB01F801918349
:101B700080831FC0FE01E95AFF4F80E991E0918305
:101B80008083FE01E95AFF4F808191810197F1F72F
:101B9000FE01E95AFF4F91838083DE01A75ABF4FB0
:101BA000FE01E75AFF4F80819181019711969C9326
:101BB0008E93FE01E75AFF4F808191810097D1F605
:101BC00027C08E01075A1F4FFE01E55AFF4F608163
:101BD0007181828193810E944900DC01CB01F8016F
:101BE00091838083DE01AB5ABF4FFE01E75AFF4F5E
:101BF000808191818D939C93FE01EB5AFF4F8081F0
:101C000091810197F1F7FE01EB5AFF4F9183808399
:101C100080E062E041E00E948E06FE01EF5AFF4F35
:101C200080E090E0A0E8BFE380839183A283B38348
:101C30008E01035B1F4FFE01EF5AFF4F60817181E0
:101C40008281938120E030E04AE755E40E941F0240
:101C5000DC01CB01F80180839183A283B383FE0171
:101C6000E35BFF4F608171818281938120E030E0EE
:101C700040E85FE30E947903882344F4FE01E55BBA
:101C8000FF4F81E090E09183808364C0FE01E35BBD
:101C9000FF4F608171818281938120E03FEF4FE7A8
:101CA00057E40E94190318160CF043C0FE01EF5AC6
:101CB000FF4F608171818281938120E030E040E2BA
:101CC00051E40E941F02DC01CB018E01055B1F4F16
:101CD000BC01CD010E944900DC01CB01F8019183D8
:101CE00080831FC0FE01E75BFF4F80E991E0918395
:101CF0008083FE01E75BFF4F808191810197F1F7BF
:101D0000FE01E75BFF4F91838083DE01A55BBF4F40
:101D1000FE01E55BFF4F80819181019711969C93B5
:101D20008E93FE01E55BFF4F808191810097D1F694
:101D300027C08E01055B1F4FFE01E35BFF4F6081F3
:101D40007181828193810E944900DC01CB01F801FD
:101D500091838083DE01A95BBF4FFE01E55BFF4FEE
:101D6000808191818D939C93FE01E95BFF4F80817F
:101D700091810197F1F7FE01E95BFF4F9183808329
:101D8000FE01ED59FF4F808182958F70982F9170E1
:101D900080E063E0492F0E948E06FE01ED59FF4F5F
:101DA0008081829586958770982F917080E064E09D
:101DB000492F0E948E06FE01ED59FF4F80818295CA
:101DC000869586958370982F917080E065E0492F05
:101DD0000E948E06FE01ED59FF4F8081982F991FBA
:101DE0009927991F80E066E0492F0E948E06FE0128
:101DF000ED5BFF4F80E090E0A0E8BFE3808391833C
:101E0000A283B3838E01015C1F4FFE01ED5BFF4F88
:101E1000608171818281938120E030E04AE755E45E
:101E20000E941F02DC01CB01F80180839183A28311
:101E3000B383FE01FF96608171818281938120E0EE
:101E400030E040E85FE30E94790388232CF481E0CE
:101E500090E09EAF8DAF46C0FE01FF96608171811C
:101E60008281938120E03FEF4FE757E40E941903FE
:101E7000181664F5FE01ED5BFF4F60817181828170
:101E8000938120E030E040E251E40E941F02DC0137
:101E9000CB01BC01CD010E944900DC01CB019EAF0A
:101EA0008DAF0FC080E991E09CAF8BAF8BAD9CAD47
:101EB0000197F1F79CAF8BAF8DAD9EAD01979EAFB3
:101EC0008DAF8DAD9EAD009769F716C0FE01FF96F0
:101ED00060817181828193810E944900DC01CB0184
:101EE0009EAF8DAF8DAD9EAD9AAF89AF89AD9AADE6
:101EF0000197F1F79AAF89AF80E062E040E00E947D
:101F00008E0680E090E0A0E8BFE38DAB9EABAFAB68
:101F1000B8AF6DA97EA98FA998AD20E030E04AE75F
:101F200055E40E941F02DC01CB0189AB9AABABAB3D
:101F3000BCAB69A97AA98BA99CA920E030E040E854
:101F40005FE30E94790388232CF481E090E098AB52
:101F50008FA73FC069A97AA98BA99CA920E03FEF70
:101F60004FE757E40E94190318164CF56DA97EA996
:101F70008FA998AD20E030E040E251E40E941F02BA
:101F8000DC01CB01BC01CD010E944900DC01CB0189
:101F900098AB8FA70FC080E991E09EA78DA78DA574
:101FA0009EA50197F1F79EA78DA78FA598A90197E8
:101FB00098AB8FA78FA598A9009769F714C069A956
:101FC0007AA98BA99CA90E944900DC01CB0198AB9E
:101FD0008FA78FA598A99CA78BA78BA59CA50197D8
:101FE000F1F79CA78BA780E062E041E00E948E069B
:101FF00080E090E0A0E8BFE38FA398A7A9A7BAA7C5
:102000006FA178A589A59AA520E030E04AE755E4BC
:102010000E941F02DC01CB018BA39CA3ADA3BEA336
:102020006BA17CA18DA19EA120E030E040E85FE3A0
:102030000E94790388232CF481E090E09AA389A37D
:102040003FC06BA17CA18DA19EA120E03FEF4FE797
:1020500057E40E94190318164CF56FA178A589A5BD
:102060009AA520E030E040E251E40E941F02DC012A
:10207000CB01BC01CD010E944900DC01CB019AA338
:1020800089A30FC080E991E098A38F8F8F8D98A1CD
:102090000197F1F798A38F8F89A19AA101979AA32D
:1020A00089A389A19AA1009769F714C06BA17CA1AB
:1020B0008DA19EA10E944900DC01CB019AA389A3B6
:1020C00089A19AA19E8F8D8F8D8D9E8D0197F1F79D
:1020D0009E8F8D8FFE01ED59FF4F8081982F91705B
:1020E00080E063E0492F0E948E06FE01ED59FF4F0C
:1020F00080818695982F917080E064E0492F0E943E
:102100008E06FE01ED59FF4F808186958695982FAA
:10211000917080E065E0492F0E948E06FE01ED5926
:10212000FF4F8081869586958695982F917080E0E7
:1021300066E0492F0E948E0680E090E0A0E8BFE3B1
:10214000898F9A8FAB8FBC8F698D7A8D8B8D9C8D8B
:1021500020E030E04AE755E40E941F02DC01CB0199
:102160008D8B9E8BAF8BB88F6D897E898F89988D73
:1021700020E030E040E85FE30E94790388232CF4FC
:1021800081E090E09C8B8B8B3FC06D897E898F892D
:10219000988D20E03FEF4FE757E40E94190318168F
:1021A0004CF5698D7A8D8B8D9C8D20E030E040E27E
:1021B00051E40E941F02DC01CB01BC01CD010E9451
:1021C0004900DC01CB019C8B8B8B0FC080E991E037
:1021D0009A8B898B89899A890197F1F79A8B898BD8
:1021E0008B899C8901979C8B8B8B8B899C89009711
:1021F00069F714C06D897E898F89988D0E94490086
:10220000DC01CB019C8B8B8B8B899C89988B8F8776
:102210008F8598890197F1F7988B8F8780E062E02E
:1022200040E00E948E0680E090E0A0E8BFE38B874C
:102230009C87AD87BE876B857C858D859E8520E0DC
:1022400030E04AE755E40E941F02DC01CB018F8396
:102250009887A987BA876F81788589859A8520E0D4
:1022600030E040E85FE30E94790388232CF481E0AA
:1022700090E09E838D833FC06F81788589859A85A4
:1022800020E03FEF4FE757E40E94190318164CF582
:102290006B857C858D859E8520E030E040E251E4B1
:1022A0000E941F02DC01CB01BC01CD010E9449004C
:1022B000DC01CB019E838D830FC080E991E09C837C
:1022C0008B838B819C810197F1F79C838B838D811C
:1022D0009E8101979E838D838D819E81009769F7F2
:1022E00014C06F81788589859A850E944900DC0138
:1022F000CB019E838D838D819E819A838983898181
:102300009A810197F1F79A838983CD59DF4F0FB6F0
:10231000F894DEBF0FBECDBFCF91DF911F910F911B
:1023200008950F931F93DF93CF93CDB7DEB7C356B6
:10233000D0400FB6F894DEBF0FBECDBFFE01ED5901
:10234000FF4F808380E061E041E00E948E06FE0145
:10235000E15AFF4F80E090E0A0E8BFE380839183E3
:10236000A283B3838E01055A1F4FFE01E15AFF4F2E
:10237000608171818281938120E030E04AE755E4F9
:102380000E941F02DC01CB01F80180839183A283AC
:10239000B383FE01E55AFF4F608171818281938191
:1023A00020E030E040E85FE30E947903882344F4B2
:1023B000FE01E75AFF4F81E090E09183808364C083
:1023C000FE01E55AFF4F608171818281938120E097
:1023D0003FEF4FE757E40E94190318160CF043C073
:1023E000FE01E15AFF4F608171818281938120E07B
:1023F00030E040E251E40E941F02DC01CB018E017B
:10240000075A1F4FBC01CD010E944900DC01CB01DE
:10241000F801918380831FC0FE01E95AFF4F80E9D4
:1024200091E091838083FE01E95AFF4F8081918181
:102430000197F1F7FE01E95AFF4F91838083DE0196
:10244000A75ABF4FFE01E75AFF4F80819181019744
:1024500011969C938E93FE01E75AFF4F80819181E4
:102460000097D1F627C08E01075A1F4FFE01E55A8B
:10247000FF4F60817181828193810E944900DC015C
:10248000CB01F80191838083DE01AB5ABF4FFE017F
:10249000E75AFF4F808191818D939C93FE01EB5A07
:1024A000FF4F808191810197F1F7FE01EB5AFF4FB9
:1024B0009183808380E062E041E00E948E06FE010D
:1024C000EF5AFF4F80E090E0A0E8BFE38083918364
:1024D000A283B3838E01035B1F4FFE01EF5AFF4FB0
:1024E000608171818281938120E030E04AE755E488
:1024F0000E941F02DC01CB01F80180839183A2833B
:10250000B383FE01E35BFF4F608171818281938120
:1025100020E030E040E85FE30E947903882344F440
:10252000FE01E55BFF4F81E090E09183808364C012
:10253000FE01E35BFF4F608171818281938120E026
:102540003FEF4FE757E40E94190318160CF043C001
:10255000FE01EF5AFF4F608171818281938120E0FB
:1025600030E040E251E40E941F02DC01CB018E0109
:10257000055B1F4FBC01CD010E944900DC01CB016E
:10258000F801918380831FC0FE01E75BFF4F80E964
:1025900091E091838083FE01E75BFF4F8081918111
:1025A0000197F1F7FE01E75BFF4F91838083DE0126
:1025B000A55BBF4FFE01E55BFF4F808191810197D5
:1025C00011969C938E93FE01E55BFF4F8081918174
:1025D0000097D1F627C08E01055B1F4FFE01E35B1C
:1025E000FF4F60817181828193810E944900DC01EB
:1025F000CB01F80191838083DE01A95BBF4FFE010F
:10260000E55BFF4F808191818D939C93FE01E95B97
:10261000FF4F808191810197F1F7FE01E95BFF4F48
:1026200091838083FE01ED59FF4F808182958F70E9
:10263000982F917080E063E0492F0E948E06FE0182
:10264000ED59FF4F8081829586958770982F917004
:1026500080E064E0492F0E948E06FE01ED59FF4F95
:1026600080818295869586958370982F917080E001
:1026700065E0492F0E948E06FE01ED59FF4F8081D3
:10268000982F991F9927991F80E066E0492F0E9493
:102690008E06FE01ED5BFF4F80E090E0A0E8BFE317
:1026A00080839183A283B3838E01015C1F4FFE015F
:1026B000ED5BFF4F608171818281938120E030E08A
:1026C0004AE755E40E941F02DC01CB01F801808338
:1026D0009183A283B383FE01FF9660817181828121
:1026E000938120E030E040E85FE30E947903882393
:1026F0002CF481E090E09EAF8DAF46C0FE01FF96C6
:10270000608171818281938120E03FEF4FE757E440
:102710000E941903181664F5FE01ED5BFF4F6081FE
:1027200071818281938120E030E040E251E40E9497
:102730001F02DC01CB01BC01CD010E944900DC017C
:10274000CB019EAF8DAF0FC080E991E09CAF8BAF06
:102750008BAD9CAD0197F1F79CAF8BAF8DAD9EAD6E
:1027600001979EAF8DAF8DAD9EAD009769F716C0F6
:10277000FE01FF9660817181828193810E944900F0
:10278000DC01CB019EAF8DAF8DAD9EAD9AAF89AF11
:1027900089AD9AAD0197F1F79AAF89AF80E062E019
:1027A00040E00E948E0680E090E0A0E8BFE38DABA1
:1027B0009EABAFABB8AF6DA97EA98FA998AD20E055
:1027C00030E04AE755E40E941F02DC01CB0189ABEF
:1027D0009AABABABBCAB69A97AA98BA99CA920E049
:1027E00030E040E85FE30E94790388232CF481E025
:1027F00090E098AB8FA73FC069A97AA98BA99CA943
:1028000020E03FEF4FE757E40E94190318164CF5FC
:102810006DA97EA98FA998AD20E030E040E251E497
:102820000E941F02DC01CB01BC01CD010E944900C6
:10283000DC01CB0198AB8FA70FC080E991E09EA788
:102840008DA78DA59EA50197F1F79EA78DA78FA5B2
:1028500098A9019798AB8FA78FA598A9009769F7BA
:1028600014C069A97AA98BA99CA90E944900DC011E
:10287000CB0198AB8FA78FA598A99CA78BA78BA5F9
:102880009CA50197F1F79CA78BA780E062E041E04F
:102890000E948E0680E090E0A0E8BFE38FA398A797
:1028A000A9A7BAA76FA178A589A59AA520E030E0CD
:1028B0004AE755E40E941F02DC01CB018BA39CA3D5
:1028C000ADA3BEA36BA17CA18DA19EA120E030E0B1
:1028D00040E85FE30E94790388232CF481E090E0D4
:1028E0009AA389A33FC06BA17CA18DA19EA120E0EA
:1028F0003FEF4FE757E40E94190318164CF56FA1FC
:1029000078A589A59AA520E030E040E251E40E9434
:102910001F02DC01CB01BC01CD010E944900DC019A
:10292000CB019AA389A30FC080E991E098A38F8F70
:102930008F8D98A10197F1F798A38F8F89A19AA104
:1029400001979AA389A389A19AA1009769F714C056
:102950006BA17CA18DA19EA10E944900DC01CB014D
:102960009AA389A389A19AA19E8F8D8F8D8D9E8D0B
:102970000197F1F79E8F8D8FFE01ED59FF4F8081FA
:10298000982F917080E063E0492F0E948E06FE012F
:10299000ED59FF4F80818695982F917080E064E01B
:1029A000492F0E948E06FE01ED59FF4F80818695CA
:1029B0008695982F917080E065E0492F0E948E06E1
:1029C000FE01ED59FF4F8081869586958695982F5B
:1029D000917080E066E0492F0E948E0680E090E0D2
:1029E000A0E8BFE3898F9A8FAB8FBC8F698D7A8DFA
:1029F0008B8D9C8D20E030E04AE755E40E941F0259
:102A0000DC01CB018D8B9E8BAF8BB88F6D897E895E
:102A10008F89988D20E030E040E85FE30E947903E1
:102A200088232CF481E090E09C8B8B8B3FC06D89D8
:102A30007E898F89988D20E03FEF4FE757E40E9411
:102A4000190318164CF5698D7A8D8B8D9C8D20E0BD
:102A500030E040E251E40E941F02DC01CB01BC01E6
:102A6000CD010E944900DC01CB019C8B8B8B0FC0F8
:102A700080E991E09A8B898B89899A890197F1F78E
:102A80009A8B898B8B899C8901979C8B8B8B8B89EB
:102A90009C89009769F714C06D897E898F89988D0C
:102AA0000E944900DC01CB019C8B8B8B8B899C891C
:102AB000988B8F878F8598890197F1F7988B8F87EF
:102AC00080E062E040E00E948E0680E090E0A0E8B6
:102AD000BFE38B879C87AD87BE876B857C858D85A3
:102AE0009E8520E030E04AE755E40E941F02DC01A9
:102AF000CB018F839887A987BA876F81788589856D
:102B00009A8520E030E040E85FE30E947903882363
:102B10002CF481E090E09E838D833FC06F817885A7
:102B200089859A8520E03FEF4FE757E40E9419031B
:102B300018164CF56B857C858D859E8520E030E0F0
:102B400040E251E40E941F02DC01CB01BC01CD0137
:102B50000E944900DC01CB019E838D830FC080E978
:102B600091E09C838B838B819C810197F1F79C83FF
:102B70008B838D819E8101979E838D838D819E8124
:102B8000009769F714C06F81788589859A850E94BE
:102B90004900DC01CB019E838D838D819E819A83C8
:102BA000898389819A810197F1F79A838983CD5925
:102BB000DF4F0FB6F894DEBF0FBECDBFCF91DF91D0
:102BC0001F910F910895DF93CF9300D00F92CDB74F
:102BD000DEB79B838A8319820EC08981282F30E05B
:102BE0008A819B81FC01E20FF31F80810E94911179
:102BF00089818F5F89838981282F30E08A819B8139
:102C0000FC01E20FF31F8081882339F70F900F90AA
:102C10000F90CF91DF910895DF93CF9300D000D034
:102C20000F92CDB7DEB78A836B838A81282F30E07D
:102C30003D832C838C819D8181309105C1F02C8155
:102C40003D81223031052CF48C819D81009761F00B
:102C500019C02C813D812230310569F08C819D8124
:102C60008330910561F00EC08B8189830BC08B810D
:102C7000805C898307C08B81805F898303C08B81DF
:102C8000805B8983898180680E943F0D0F900F903F
:102C90000F900F900F90CF91DF910895DF93CF9316
:102CA00000D000D0CDB7DEB789836A835C834B83C5
:102CB00089816A810E940C168B819C810E94E31598
:102CC0000F900F900F900F90CF91DF910895DF93A9
:102CD000CF93CDB7DEB762970FB6F894DEBF0FBEC5
:102CE000CDBF9A8B898B89899A899E012F5F3F4F2F
:102CF000B9014AE050E00E94C319CE0101960E943A
:102D0000E31562960FB6F894DEBF0FBECDBFCF912C
:102D1000DF910895DF93CF93CDB7DEB781E00E94B6
:102D20003F0DCF91DF910895DF93CF93CDB7DEB7FD
:102D300082E060E041E00E94A30582E060E040E0C4
:102D40000E948E06CF91DF910895DF93CF93CDB788
:102D5000DEB782E060E041E00E948E06CF91DF9115
:102D60000895DF93CF93CDB7DEB782E060E040E017
:102D70000E948E06CF91DF910895DF93CF93CDB758
:102D8000DEB76B970FB6F894DEBF0FBECDBF0E94C3
:102D90003B0C0E94640C0E9494160E948D0C80E6ED
:102DA00090E00E94E315CE0101969B8B8A8BECE9A3
:102DB000F0E0FD8BEC8BF6E0FE8BEC89FD8900806A
:102DC0008C899D8901969D8B8C8BEA89FB89008279
:102DD0008A899B8901969B8B8A8B9E8991509E8BB9
:102DE000EE89EE2351F7CE0101960E94C70A80E4D6
:102DF0008F8382E0888780E8898782E08A87CE0196
:102E000007960E94E108CE0109960E94E1080E94FF
:102E10003617CE010B96988F8F8BE5E9F0E0FA8F8D
:102E2000E98FF7E0FB8FE98DFA8D0080898D9A8D0F
:102E300001969A8F898FEF89F88D00828F89988DFE
:102E40000196988F8F8B9B8D91509B8FEB8DEE23EE
:102E500051F7CE010B960E94510B6B960FB6F8946A
:102E6000DEBF0FBECDBFCF91DF910895DF93CF932B
:102E7000CDB7DEB784EB97E160E00E94AA098BEE44
:102E800097E161E00E94AA09CF91DF910895DF9355
:102E9000CF93CDB7DEB72C970FB6F894DEBF0FBE39
:102EA000CDBF9A8789877C876B871C821B828B8525
:102EB0009C859A8389830FC08B819C8101969C831A
:102EC0008B8389819A812AE030E0B9010E944319FD
:102ED000CB019A83898389819A81009769F7188643
:102EE0001F822AC08B859C852AE030E0B9010E94B0
:102EF00043199E838D838B859C852AE030E0B90140
:102F00000E944319CB019C878B878F8198859C01F8
:102F1000209530958B819C81820F931F9C01898520
:102F20009A85FC01E20FF31F8D81805D80838F8184
:102F30009885019698878F832F8138858B819C8116
:102F4000281739077CF28B819C8129853A85F90104
:102F5000E80FF91F10822C960FB6F894DEBF0FBE53
:102F6000CDBFCF91DF910895DF93CF93CDB7DEB77B
:102F70002B970FB6F894DEBF0FBECDBFCE010196E2
:102F800098878F83E2EAF0E0FA87E987F6E0FB872B
:102F9000E985FA85008089859A8501969A878987CF
:102FA000EF81F88500828F819885019698878F83BD
:102FB0009B8591509B87EB85EE2351F7CE010196BF
:102FC0000E94C70A2B960FB6F894DEBF0FBECDBF86
:102FD000CF91DF910895DF93CF93CDB7DEB7A09760
:102FE0000FB6F894DEBF0FBECDBF0E94340B98A37E
:102FF0008F8F8F8D98A19C0140E050E083E993E989
:10300000A3E0B0E0BC01CD010E945619DA01C9016C
:103010009E8F8D8F80E068E00E940C168D8D9E8DB6
:103020000E9467168D8D9E8D8031910508F47BC0BE
:103030000E944C0C0E94A51680E090E0AAE7B4E440
:10304000898F9A8FAB8FBC8F698D7A8D8B8D9C8D7C
:1030500020E030E04AE755E40E941F02DC01CB018A
:103060008D8B9E8BAF8BB88F6D897E898F89988D64
:1030700020E030E040E85FE30E94790388232CF4ED
:1030800081E090E09C8B8B8B3FC06D897E898F891E
:10309000988D20E03FEF4FE757E40E941903181680
:1030A0004CF5698D7A8D8B8D9C8D20E030E040E26F
:1030B00051E40E941F02DC01CB01BC01CD010E9442
:1030C0004900DC01CB019C8B8B8B0FC080E991E028
:1030D0009A8B898B89899A890197F1F79A8B898BC9
:1030E0008B899C8901979C8B8B8B8B899C89009702
:1030F00069F714C06D897E898F89988D0E94490077
:10310000DC01CB019C8B8B8B8B899C89988B8F8767
:103110008F8598890197F1F7988B8F870E94580CBB
:103120000E94B1167AC083E790E00E94E3150E94E6
:10313000750C80E090E0AAE7B4E48B879C87AD87AC
:10314000BE876B857C858D859E8520E030E04AE7D3
:1031500055E40E941F02DC01CB018F839887A98769
:10316000BA876F81788589859A8520E030E040E8CC
:103170005FE30E94790388232CF481E090E09E8332
:103180008D833FC06F81788589859A8520E03FEFE8
:103190004FE757E40E94190318164CF56B857C85A0
:1031A0008D859E8520E030E040E251E40E941F02C0
:1031B000DC01CB01BC01CD010E944900DC01CB0147
:1031C0009E838D830FC080E991E09C838B838B81EC
:1031D0009C810197F1F79C838B838D819E81019760
:1031E0009E838D838D819E81009769F714C06F81C6
:1031F000788589859A850E944900DC01CB019E83F0
:103200008D838D819E819A83898389819A8101979B
:10321000F1F79A8389830E94810C8D8D9E8D0E9487
:103220001A19A0960FB6F894DEBF0FBECDBFCF918E
:10323000DF910895DF93CF9300D000D0CDB7DEB7F4
:103240009C838B832B813C8189819A81B9010E9467
:10325000471786E790E00E940F0C89819A810E94AF
:103260000F0C83E890E00E940F0C0F900F900F90CE
:103270000F90CF91DF910895DF93CF93CDB7DEB755
:103280000E94BD16FFCF97FB092E07260AD077FDB7
:1032900004D02ED006D000201AF4709561957F4F8F
:1032A0000895F6F7909581959F4F0895A1E21A2E03
:1032B000AA1BBB1BFD010DC0AA1FBB1FEE1FFF1FDA
:1032C000A217B307E407F50720F0A21BB30BE40B2A
:1032D000F50B661F771F881F991F1A9469F7609571
:1032E0007095809590959B01AC01BD01CF0108952B
:1032F000AA1BBB1B51E107C0AA1FBB1FA617B7071C
:1033000010F0A61BB70B881F991F5A95A9F7809537
:103310009095BC01CD0108952F923F924F925F92FC
:103320006F927F928F929F92AF92BF92CF92DF92D5
:10333000EF92FF920F931F93CF93DF93CDB7DEB73A
:10334000CA1BDB0B0FB6F894DEBF0FBECDBF0994CE
:103350002A88398848885F846E847D848C849B8425
:10336000AA84B984C884DF80EE80FD800C811B8133
:10337000AA81B981CE0FD11D0FB6F894DEBF0FBE62
:10338000CDBFED010895FB019F01E8944230C4F0E8
:103390004532B4F44A3029F497FB1EF49095819598
:1033A0009F4F642F77270E947819805D8A330CF035
:1033B000895D8193CB010097A1F716F45DE25193EB
:1033C0001082C9010C94E419DC01FC01672F719192
:1033D0007723E1F7329704C07C916D9370836291FB
:0C33E000AE17BF07C8F30895F894FFCFA4
:1033EC005350454544203A2020202020636D2F73F4
:1033FC006563002020006361722073706565642032
:10340C003D200020636D2F736563200A00000000CF
:10341C0000000000000000038025000000000000F8
:08342C0005000000000005008E
:00000001FF
